:020000040800F2
:1000000050060020C50100083F4E00086F28000878
:100010003B4E0008D10200087D5B00080000000094
:1000200000000000000000000000000091560008E1
:10003000F303000800000000794E00089356000802
:10004000DF010008DF010008DF010008DF01000810
:10005000DF010008DF0100081D050008DF010008BE
:10006000DF010008DF010008DF010008DF010008F0
:10007000DF010008DF010008DF010008DF010008E0
:10008000DF010008DF010008DF010008DF010008D0
:10009000DF010008DF010008DF010008DF010008C0
:1000A000DF010008DF010008DF010008DF010008B0
:1000B000DF010008DF010008DF010008DF010008A0
:1000C000DF010008DF010008DF010008DF01000890
:1000D000DF010008DF010008DF010008DF01000880
:1000E000DF010008DF010008DF010008DF01000870
:1000F000DF010008DF010008DF010008DF01000860
:10010000DF010008DF010008DF010008DF0100084F
:10011000DF010008DF010008DF010008DF0100083F
:10012000DF010008DF010008DF010008DF0100082F
:10013000DF010008DF010008DF010008DF0100081F
:10014000DF010008DF010008DF010008DF0100080F
:10015000DF010008DF010008DF010008DF010008FF
:10016000DF010008DF010008DF010008DF010008EF
:10017000DF010008DF010008DF01000800000000C7
:10018000DF010008DF010008DF010008DF010008CF
:10019000DF010008DF010008DF010008DF010008BF
:1001A000DF010008DF010008DF010008DFF810D0E0
:1001B00000F07CF80048004765600008AFF300805D
:1001C000500600200648804706480047FEE7FEE745
:1001D000FEE7FEE7FEE7FEE7FEE7FEE7FEE7FEE7F7
:1001E00045570008AD0100082DE9F05F05460020E5
:1001F00092469B4688460646814640241BE0284698
:1002000041464746224600F041F853465A46C01A36
:10021000914110D311461846224600F028F82D1AB5
:1002200067EB01084F4622460120002100F01FF82D
:1002300017EB00094E41201EA4F10104DFDC484603
:1002400031462A464346BDE8F09F40EA01039B073A
:1002500003D009E008C9121F08C0042AFAD203E03B
:1002600011F8013B00F8013B521EF9D27047202AD9
:1002700004DB203A00FA02F1002070479140C2F1FD
:10028000200320FA03F3194390407047202A04DB2F
:10029000203A21FA02F00021704721FA02F3D040FF
:1002A000C2F120029140084319467047064C074DA1
:1002B00006E0E06840F0010394E807009847103436
:1002C000AC42F6D3FFF776FFC49E0008E49E000818
:1002D00000BFFEE710B50848084908604FF4E13058
:1002E0004860002105488160C160016181610C2185
:1002F000416102F0BDF910BD001001404400002032
:100300002DE9F0470C4616461F46DDF820C04FF099
:1003100000080025002100220023D0F80090D9F821
:10032000449009F040494CEA074A49EA0A09D0F8E2
:1003300000A0CAF84490D0F80090C9F83C60D0F80A
:100340000490B9F5403F4ED104F07F4504F47F019D
:1003500004F47F42E3B2D0F80890B9F1000F06D15F
:1003600042EA010949EA050949EA030836E0D0F8FA
:100370000890B9F1010F04D142EA010949EA0308E2
:100380002CE0D0F80890B9F1020F09D1C90C920AFB
:10039000DB084FEA421949EAC12949EA03081DE08E
:1003A000D0F80890B9F1030F0CD1ED0FC90CD20AA7
:1003B000DB084FEA421949EA812949EAC53949EA85
:1003C00003080BE02D0F090D120B1B094FEA021950
:1003D00049EA012949EA053949EA0308D0F80090B9
:1003E000C9F8388003E0D0F80090C9F80C40BDE8A7
:1003F000F087704701B502E00098401E0090009819
:100400000028F9D108BD01B502E00098401E009017
:1004100000980028F9D108BD2DE9FC4F0746894610
:1004200092464FF0000800263A48006800EB400072
:10043000394901EB80008068B0F806B035480068A3
:1004400000EB400001EB800080688588E81DC11743
:1004500000EB5171C910C5EBC101C9B2019100BFD8
:1004600054E0E81DC11700EB5171C91001FB08A44D
:10047000C11700EB5171C910012904D0022905D020
:10048000032909D109E0207800900FE060782178F5
:1004900040EA0120009009E000BF20780004617864
:1004A00040EA0120A1780843009000BF00BF002669
:1004B00024E0A91B01980844401E012101FA00F024
:1004C0000099084060B11349096801EB4101124BE2
:1004D00053F82120B91988B2494603F0B5F80CE069
:1004E0000C49096801EB41010B4B03EB81014A68A0
:1004F000B91988B2494603F0A7F8761CAE42D8D3A2
:1005000009F101001FFA80F908F10108D845A8D3C4
:10051000BDE8FC8F38000020B0010020704730B5E6
:100520000246002300240868012816D013686FF3E0
:100530000E03D1E901052843CD6828430D692843FE
:100540004D6928438D692843CD6928430D6A2843A6
:100550004D6A28430343136019E0136823F4F843FA
:10056000D1E9070528434D6A2843034354686FF3D4
:100570000E04D1E901052843CD6828430D692843BD
:100580004D6928438D69284304431360546000205B
:1005900030BD0246506940EA41005061002070477A
:1005A000F8B506460C461546002000900027D4E911
:1005B00000010843A168491E40EA4110E16840EA91
:1005C000412000900098306100F038FE074609E0B5
:1005D000681C38B125B100F031FEC01BA84201D91A
:1005E0000320F8BDB06900F020000028F0D100BF62
:1005F000F7E7000070B50346154600220024012DE0
:100600001FD09A6802F070420868401E4E68761E3D
:1006100040EA06168868401E46EA0026C868401E62
:1006200046EA0036088A401E46EA0046888A401E8E
:1006300046EA0056087E401E46EA006002439A6081
:1006400022E09A6811480240C868401E0603888A62
:10065000401E46EA00500243DC6804F0704408681B
:10066000401E4E68761E40EA06168868401E46EA1E
:100670000026088A401E46EA0046087E401E46EADA
:10068000006004439A60DC60002070BDFF0F0FFF24
:100690002DE9FC41002000900190002435480078AD
:1006A00000EB4000344931F810503248007800EB3C
:1006B000400001EB4000468800272E48007800EB00
:1006C000400001EB40008088401C000A8DF80000CB
:1006D0002848007800EB400001EB40000079401C06
:1006E000C0B28DF8010006226946BA2000F064F815
:1006F0000446002C02DA0020BDE8FC819DF80200CF
:100700009DF8031000EB012085B29DF804009DF8D0
:10071000051000EB012086B21648007800EB40007F
:10072000154901EB40008088801D000A8DF800000B
:100730001048007800EB400001EB40000079801D7C
:10074000C0B28DF8010003226946BA2000F034F8E7
:100750000446002C01DA0020CEE79DF8020000F0EC
:1007600003073B463246294604A005F009FA01205A
:10077000C2E700003D000020F49D00083C3C2D47EE
:1007800054502D494E464F2D3E3E20585F4D415806
:10079000203D2025642C20595F4D4158203D2025C7
:1007A000642C2054524947474552203D203078253B
:1007B0003032780A000000002DE9F04186B005468D
:1007C0000C4616464FF0FF374FF0000800BF00BF41
:1007D0000020ADF802008DF800500220ADF80400B2
:1007E00002940121ADF80E108DF80C50B01E81B2AC
:1007F000ADF81010A01C059009E00221684602F037
:1008000083FA0746022F00D104E008F10108B8F18D
:10081000050FF2DB00BFB8F1050F08DB6078237825
:1008200040EA0321B21E3B46034805F0A9F93846C9
:1008300006B0BDE8F0810000749E000838B50020C5
:1008400000901748007800EB4000164901EB40008B
:10085000808800128DF800001148007800EB4000FD
:1008600001EB400000798DF8010000256C1E00BFEF
:1008700000BF0DE003226946BA20FFF79DFF44B296
:10088000002C01DD204638BD294607A005F078F987
:100890002846691CCDB20528ECDB2046F3E70000B2
:1008A0003D000020F49D00083C3C2D4754502D4550
:1008B00052524F522D3E3E20475450206932632001
:1008C00074657374206661696C65642074696D6514
:1008D0002025642E0A00000010B54FF0FF3400BF41
:1008E00000BF02F007FAFFF7A9FF0446002C04DA64
:1008F00005A005F045F9204610BD00F01BF8FFF7F4
:10090000C7FE0020F8E700003C3C2D4754502D4521
:1009100052524F522D3E3E2049324320636F6D6D3F
:10092000756E69636174696F6E204552524F522132
:100930000A00000010B586B04FF0FF34974903C994
:10094000CDE9040100BF00BF082204A9BA20FFF7C7
:1009500033FF0446002C05DA91A005F011F920467A
:1009600006B010BD9DF81400312833D19DF8120057
:1009700039281CD19DF81300312818D19DF8140096
:10098000312814D19DF816009DF81710CDE90010FC
:100990009DF814309DF813209DF812108BA005F0DF
:1009A000EFF801209549087095490870F4E09DF82A
:1009B00016009DF817109DF81520CDE90021029032
:1009C0009DF814309DF813209DF812108DA005F0AD
:1009D000D7F8E1E09DF8140035285FD19DF81200AA
:1009E000392823D19DF8130031281FD19DF8140018
:1009F00035281BD19DF81500372817D19DF8160012
:100A00009DF817109DF81520CDE9002102909DF862
:100A100014309DF813209DF8121088A005F0B0F84E
:100A200000207649087076490870B5E09DF81200FC
:100A3000362820D19DF8130031281CD19DF81400D0
:100A4000352818D19DF816109DF817009DF815202F
:100A5000CDE9002002919DF814309DF813209DF8F7
:100A6000121082A005F08CF804206449087001205F
:100A70006349087090E09DF816009DF817109DF8E6
:100A80001520CDE9002102909DF814309DF8132027
:100A90009DF812105BA005F073F87DE09DF814003E
:100AA00038283AD19DF81200352823D19DF813003B
:100AB00036281FD19DF8140038281BD19DF8150049
:100AC000382817D19DF816109DF817009DF81520AD
:100AD000CDE9002002919DF814309DF813209DF877
:100AE00012106EA005F04CF80220444908704449E9
:100AF000087051E09DF816109DF817009DF815201C
:100B0000CDE9002002919DF814309DF813209DF846
:100B100012103CA005F034F83EE09DF81400372890
:100B200028D19DF816009DF817109DF81520CDE9E5
:100B3000002102909DF814309DF813209DF81210AA
:100B400062A005F01DF89DF81200392824D19DF807
:100B50001300312820D19DF8140037281CD19DF8AE
:100B60001500532818D10320244908700020244977
:100B7000087011E09DF816009DF817109DF81520DB
:100B8000CDE9002102909DF814309DF813209DF8C6
:100B900012101CA004F0F4FF2046E1E65C9E000861
:100BA0003C3C2D4754502D4552524F522D3E3E2035
:100BB00047545020726561642076657273696F6E68
:100BC000206661696C65640A000000003C3C2D47AA
:100BD00054502D494E464F2D3E3E2049433120561C
:100BE000657273696F6E3A202563256325635F25FF
:100BF000303278253032780A000000003D000020B5
:100C00003C0000203C3C2D4754502D494E464F2D72
:100C10003E3E20556E6B6E6F776E204943205665C1
:100C20007273696F6E3A2025632563256325635FC0
:100C300025303278253032780A0000003C3C2D47C0
:100C400054502D494E464F2D3E3E204943322056AA
:100C5000657273696F6E3A2025632563256325638A
:100C60005F25303278253032780A00003C3C2D4731
:100C700054502D494E464F2D3E3E20494333205679
:100C8000657273696F6E3A2025632563256325635A
:100C90005F25303278253032780A00003C3C2D4701
:100CA00054502D494E464F2D3E3E20494334205648
:100CB000657273696F6E3A2025632563256325632A
:100CC0005F25303278253032780A00003C3C2D47D1
:100CD00054502D494E464F2D3E3E20494335205617
:100CE000657273696F6E3A202563256325632563FA
:100CF0005F25303278253032780A000030B5024660
:100D00000B4602F1180000EB031100245068B0F507
:100D1000403F02D0506800B100BF00BF92F83800D9
:100D2000012801D1022030BD012082F8380000BF27
:100D3000022082F8390048680A2802D04868092849
:100D400009D10D89486840EA0540CD6805F07F4526
:100D500040EA050406E00D89486840EA05400D7B3D
:100D600040EA0564ABB91068406A194D2840204339
:100D70001568686208681568A86148680A2802D082
:100D8000486809281AD1C86820F07F401568A86211
:100D900014E01068C0690E4D284020431568E861D2
:100DA00008681568286148680A2802D04868092838
:100DB00004D1C86820F07F4015682862012082F8BD
:100DC000390000BF002082F8380000BF00BFAAE74A
:100DD000F0FFFC0010B504460CB9012010BD94F8DA
:100DE000390028B9002084F83800204600F022F8A5
:100DF000022084F839002068006820F440306168DF
:100E00000843216808602068406B20F00700A16853
:100E10000843216848632068006C6FF30D00E168A7
:100E20000843216808640020E063012084F8390049
:100E30000020D3E77047F8B504460D460026002091
:100E400000902068006800F00100002843D000F006
:100E5000F5F9064639E0206840680090009800F0F7
:100E60002100E0B1009800F0200018B1E06B40F0E4
:100E70000200E063009800F0010018B1E06B40F060
:100E80000100E063212021688860042084F8390093
:100E900000BF002084F8380000BF0120F8BD681CA6
:100EA00098B125B100F0CAF9801BA8420DD9E06BBA
:100EB00040F02000E063032084F8390000BF0020E8
:100EC00084F8380000BF0320E8E72068406800F09D
:100ED00002000028BFD02068C06900F0200028B9B7
:100EE0002068406A00F0200000284BD000F0A6F9EE
:100EF000064641E0206840680090009800F0290014
:100F000020B3009800F0080018B1E06B40F0040036
:100F1000E063009800F0200018B1E06B40F00200A0
:100F2000E063009800F0010018B1E06B40F00100B0
:100F3000E063292021688860042084F8390000BF1C
:100F4000002084F8380000BF0120A7E7681C98B192
:100F500025B100F073F9801BA8420DD9E06B40F079
:100F60002000E063032084F8390000BF002084F8EB
:100F7000380000BF032091E72068406800F01000AF
:100F80000028B7D0122021688860012084F8390039
:100F900000BF002084F8380000BF00BF7EE72DE9C5
:100FA000F84304460D4616461F46DDF8208000BF74
:100FB00094F83800012802D10220BDE8F88301200E
:100FC00084F8380000BF022084F839003B463246DE
:100FD00029462046CDF80080FFF792F92068006886
:100FE00040F00100216808600020E6E770B5044683
:100FF00000F024F906462546681C10B10448007824
:10100000054400BF00F01AF9801BA842FAD370BD56
:101010000C000020F8B502460B46002500240020F5
:101020000021E6E0012606FA01F51E6806EA05043D
:10103000AC4273D15E68022E02D05E68122E13D1CC
:10104000CF0802F1200656F827004E07F70E0F26AC
:10105000BE40B0434F07FF0E1E69BE403043CF086D
:1010600002F1200646F8270010684F000326BE4014
:10107000B0431E7906F003064F00BE4030431060B7
:101080005E68012E08D05E68022E05D05E68112EC3
:1010900002D05E68122E13D190684F000326BE4026
:1010A000B0434F00DE68BE40304390605068012678
:1010B0008E40B0431E79C6F300168E403043506018
:1010C000D0684F000326BE40B0434F009E68BE402C
:1010D0003043D0605E6806F08056B6F1805FA8D1DC
:1010E00000BF00260096454E366846F48046434FC2
:1010F0003E603E46366806F48046009600BF00BF5C
:101100003F4E8F0856F827008E07370F0F26BE4038
:10111000B0433C4EB24202D100262EE068E03A4E87
:10112000B24201D1012628E0384EB24201D1022656
:1011300023E0374EB24201D103261EE0354EB242C3
:1011400001D1042619E0344EB24201D1052614E043
:10115000324EB24201D106260FE0314EB24201D1E9
:1011600007260AE02F4EB24201D1082605E02E4E96
:10117000B24201D1092600E00A268F073F0FBE4088
:1011800030431F4E8F0846F82700284E3068A04392
:101190005E6806F48036B6F5803F00D12043234ECA
:1011A0003060361D3068A0435E6806F40036B6F540
:1011B000003F00D120431D4E361D3060361D306883
:1011C000A0435E6806F48016B6F5801F00D1204368
:1011D000164E08363060361D3068A0435E6806F44F
:1011E0000016B6F5001F00D12043104E0C363060BB
:1011F000491C1029FFF416AFF8BD00004438024026
:10120000083801400000024000040240000802408B
:10121000000C02400010024000140240001802407E
:10122000001C02400020024000240240003C01401B
:101230000AB1816101E00B048361704701480068D5
:101240007047000004000020024692F83D0020286C
:101250001ED1242082F83D001068006820F00100B3
:10126000136818601068406A20F010001368586214
:101270001068406A0843136858621068006840F0BC
:10128000010013681860202082F83D00002070479C
:101290000220FCE770B50446002600250CB90120A9
:1012A00070BD94F83D0028B9002084F83C00204629
:1012B00000F0E2FA242084F83D002068006820F065
:1012C00001002168086000F0CBFE05463948B5FBF7
:1012D000F0F62068466038496068884201D8701C82
:1012E00007E04FF4967070434FF47A71B0FBF1F061
:1012F000401C216808623049606888420ED86068E6
:101300004000B5FBF0F0C0F30B00042801D204202C
:101310002DE060684000B5FBF0F028E0A06828B937
:10132000606800EB4000B5FBF0F008E0606800EB9F
:10133000C00101EB0010B5FBF0F040F48040C0F3B9
:101340000B0008B9012012E0A06828B9606800EB22
:101350004000B5FBF0F008E0606800EBC00101EB75
:101360000010B5FBF0F040F4804040F400402168EC
:10137000C861D4E90701084321680860D4E9031073
:10138000084321688860D4E9050108432168C860E2
:101390002068006840F00100216808600020206497
:1013A000202084F83D000020206384F83E0000BF28
:1013B00076E7000040420F00A08601002DE9F843C7
:1013C0000446894617469846089E0025FFF736FFD3
:1013D000054694F83D0020287CD119230122BE49FE
:1013E0002046009501F0FAFC10B10220BDE8F88318
:1013F00000BF94F83C00012801D10220F6E701204B
:1014000084F83C0000BF2068006800F0010028B9A3
:101410002068006840F001002168086020680068CA
:1014200020F4006021680860222084F83D0010202C
:1014300084F83E00002020646762A4F82A80A74850
:10144000E062608D20852B4632464946204601F0F9
:10145000DFFA80B1206C042806D100BF002084F898
:101460003C0000BF0120C1E700BF002084F83C0021
:1014700000BF0320BAE7208D88B900BF002000908C
:1014800020684069009020688069009000BF00BF1C
:101490002068006840F400702168086046E0208DF4
:1014A000012818D12068006820F480602168086055
:1014B00000BF00200090206840690090206880698B
:1014C000009000BF00BF2068006840F400702168F1
:1014D00008602BE0FEE0208D022816D1206800680D
:1014E00020F48060216808602068006840F4006093
:1014F0002168086000BF00200090206840690090CB
:1015000020688069009000BF10E02068006840F407
:1015100080602168086000BF00200090206840695A
:10152000009020688069009000BF00BFC3E0208D5C
:10153000032872D8208D01281AD12A463146204628
:1015400001F0E0FC30B1206C202801D103204DE7F0
:1015500001204BE720680069C1B2626A501C6062DA
:101560001170208D401E2085608D401E6085A2E098
:10157000208D02282AD13346002259492046009561
:1015800001F02CFC08B1032030E72068006840F42B
:1015900000702168086020680069C1B2626A501C4E
:1015A00060621170208D401E2085608D401E608518
:1015B00020680069C1B2626A501C60621170208D9F
:1015C000401E2085608D401E608574E033460022F9
:1015D00043492046009501F001FC08B1032005E7CE
:1015E0002068006820F48060216808602068006935
:1015F000C1B2626A501C60621170208D401E20854D
:10160000608D401E60853346002235492046009596
:1016100001F0E4FB10B10320E8E620E02068006858
:1016200040F400702168086020680069C1B2626AF5
:10163000501C60621170208D401E2085608D401E00
:10164000608520680069C1B2626A501C60621170D6
:10165000208D401E2085608D401E60852BE02A462F
:101660003146204601F04EFC30B1206C202801D1DB
:101670000320BBE60120B9E620680069C1B2626AB6
:10168000501C60621170208D401E2085608D401EB0
:10169000608520684069C0F3800060B120680069FF
:1016A000C1B2626A501C60621170208D401E20859C
:1016B000608D401E6085208D00287FF438AF20208B
:1016C00084F83D00002084F83E0000BF84F83C0010
:1016D00000BF8BE6022089E6020010000000FFFF39
:1016E000040001002DE9F8430446894616461F46CA
:1016F000DDF820800025FFF7A1FD054694F83D00A8
:1017000020287DD11923012259492046009501F056
:1017100065FB10B10220BDE8F88300BF94F83C00DF
:10172000012801D10220F6E7012084F83C0000BF27
:101730002068006800F0010028B92068006840F0C7
:101740000100216808602068006820F400602168BA
:101750000860212084F83D00102084F83E0000201D
:101760002064666267854348E062608D20852B4671
:1017700042464946204601F0E3F980B1206C042836
:1017800006D100BF002084F83C0000BF0120C2E762
:1017900000BF002084F83C0000BF0320BBE700BF6F
:1017A00000200090206840690090206880690090C7
:1017B00000BF00BF46E02A464146204601F0D9FB63
:1017C00060B1206C042807D12068006840F40070E4
:1017D0002168086001209EE703209CE7616A481C9D
:1017E0006062087821680861608D401E6085208DE8
:1017F000401E208520684069C0F3800078B100E079
:1018000034E0208D58B1616A481C60620878216814
:101810000861608D401E6085208D401E20852A460F
:101820004146204601F0AFFA60B1206C042807D190
:101830002068006840F400702168086001206AE7B1
:10184000032068E7208D0028B5D12068006840F4A7
:10185000007021680860202084F83D00002084F892
:101860003E0000BF84F83C0000BF54E7022052E76E
:10187000020010000000FFFF7047000003480068EE
:1018800003490978084401490860704704000020B2
:101890000C00002070B504460E4800784FF47A71B1
:1018A000B1FBF0F00C490968B1FBF0F5284600F0F7
:1018B000C5FE08B1012070BD102C07D200222146C0
:1018C000501E00F016F90548046001E00120F2E71F
:1018D0000020F0E70C00002000000020080000209D
:1018E00070B504460E46154600BF94F8A0000128C6
:1018F00001D1022070BD012084F8A00000BF0220A9
:1019000084F8A10005EB850101EBC50204F1380163
:1019100001EB820034223146FEF797FC2A4631461D
:10192000204603F081F901202168486284F8A10073
:1019300000BF002084F8A00000BF00BFDAE700006D
:1019400070B50446002500260CB9012070BD94F83E
:10195000A10028B9002084F8A000204600F07EF8FD
:10196000022084F8A1002068806920F0704021687E
:101970008861D4E901010843E1680843216908430B
:101980002168896908432168886120688068324934
:10199000084021688860A08A050420688068A169E1
:1019A00029430843216888602068C0682A490840A4
:1019B0002168C860A08B05042068C068216A29439B
:1019C00008432168C86020680069234908402168ED
:1019D0000861A08C050420680069A16A29430843B6
:1019E00021680861206840691B49084021684861F6
:1019F000A08D050420684069216B294308432168B4
:101A0000486194F83500050294F836000604206811
:101A1000C06A00F07F402168C86246EA050094F879
:101A2000341008432168C96A08432168C8622068E5
:101A3000406B40F00600216848632068806940F0F0
:101A40000100216888610020C4F8A400012084F806
:101A5000A10000207AE7000000F800F070472DE9AF
:101A6000F04104460E46174600BF94F8A000012836
:101A700002D10220BDE8F081012084F8A00000BF5F
:101A8000022084F8A10007EB870000EBC70104F1F6
:101A9000380000EB81056E613A462946204603F086
:101AA000C3F801202168486284F8A10000BF00202B
:101AB00084F8A00000BF00BFDCE7000000BF00F01A
:101AC0001F0201219140034A430942F8231000BF3D
:101AD0007047000080E100E000BF00F01F0201211C
:101AE00091404209920002F1E022C2F8001100BFC9
:101AF00070472DE9F05F80460D461646002703F03B
:101B00009FF9074639462A46334601F00700C0F1DF
:101B1000070ABAF1040F02D94FF0040A01E0C0F13C
:101B2000070AD14600F1040ABAF1070F02D24FF0BA
:101B3000000A01E0A0F1030AD4464FF0010A0AFAB4
:101B400009FAAAF1010A0AEA020A0AFA0CFA4FF0A3
:101B5000010B0BFA0CFBABF1010B0BEA030B4AEA8E
:101B60000B042146404603F073F9BDE8F09F0000E6
:101B700038B5002400BF002000901D48006840F0E8
:101B800080501B4908600846006800F080500090B3
:101B900000BF00BF012017490864FFF74FFB044650
:101BA00007E0FFF74BFB001BB0F57A7F01D903205C
:101BB00038BD1148406800F48030B0F5803FF0D166
:101BC00001200C494864FFF739FB044607E0FFF7A2
:101BD00035FB001BB0F57A7F01D90320E8E7064802
:101BE000406800F40030B0F5003FF0D10020DFE79E
:101BF0004038024000000E4200700040F8B5044634
:101C000000250026207800F0010020B9207800F09F
:101C10000200022852D10020A8498866FFF70EFB77
:101C2000054606E0FFF70AFB401B022801D9032006
:101C3000F8BDA3480068C0F3C0600028F2D1207846
:101C400000F0010038B160688101207A41EA00703B
:101C50009B4984310860207800F00200022819D1E5
:101C6000974884300068C0F3027660688101207B69
:101C700041EA006040EA067091498431086090486A
:101C80008C30006820F01F00E169491E08438C4930
:101C90008C310860012089498866FFF7CFFA054634
:101CA00006E0FFF7CBFA401B022801D90320BFE76B
:101CB00083480068C0F3C0600028F2D0207800F0AC
:101CC0000400042804D0207800F00800082863D11C
:101CD00000207A490867FFF7B1FA054606E0FFF7EA
:101CE000ADFA401B022801D90320A1E7744800681F
:101CF000C0F340700028F2D1207800F004000428DE
:101D000019D16F4888300068C0F3027620698101DC
:101D1000207D41EA006040EA067069498831086028
:101D2000081D006820F4F851206A401E41EA002096
:101D300063498C310860207800F00800082817D12A
:101D40005F4888300068C0F303662069800140EA7C
:101D50000661207E41EA0070594988310860081DFB
:101D6000006820F44030616A084355498C310860AE
:101D7000012052490867FFF761FA054606E0FFF7C0
:101D80005DFA401B022801D9032051E74C48006846
:101D9000C0F340700028F2D0207800F02000202806
:101DA0007ED100BF0020009045484030006840F0E0
:101DB00080504349403108600846006800F0805078
:101DC000009000BF00BF3F48006840F480703D496C
:101DD0000860FFF733FA054606E0FFF72FFA401BCD
:101DE000022801D9032023E73648006800F48070F8
:101DF0000028F2D032487030006800F440764EB3CC
:101E0000208D00F44070B04224D02D48703000681E
:101E100020F4407601202C49086000200860284802
:101E200070300660006800F0010098B1FFF706FA14
:101E3000054608E0FFF702FA401B41F2883188426C
:101E400001D90320F4E61E4870300068C0F340005A
:101E50000028EFD000BF208D00F44070B0F5407F27
:101E60000CD117480830006820F4F810174AA16A0E
:101E70001140084312490831086007E01048083053
:101E8000006820F4F8100E49083108600C487030E2
:101E90000068218DC1F30B0108430949703100E04E
:101EA00001E0086000BF207800F01000102803D186
:101EB00094F82C00064908600020B9E6000047426B
:101EC0000038024000700040400E4742FFFCFF0F08
:101ED000E011474270B504460D460CB9012070BDB3
:101EE0005848006800F00F00A84209D255490D700B
:101EF0000846006800F00F00A84201D00120EEE77C
:101F0000207800F0020002281DD1207800F00400A3
:101F1000042805D14C48006840F4E0504A49086064
:101F2000207800F00800082805D14748006840F4F0
:101F30006040454908604448006820F0F000A1680E
:101F4000084341490860207800F00100A8B36068A8
:101F5000012807D13C4808380068C0F34040B8B9B0
:101F60000120BCE76068022802D06068032807D11E
:101F7000354808380068C0F3406048B90120AEE732
:101F8000314808380068C0F3400008B90120A6E7CE
:101F90002D48006820F00300616808432A49086062
:101FA000FFF74CF9064609E0FFF748F9801B41F2BC
:101FB0008831884202D9032091E707E0224800686F
:101FC00000F00C006168B0EB810FEDD11D48006896
:101FD00000F00F00A84209D91A490D7008460068A0
:101FE00000F00F00A84201D0012078E7207800F02F
:101FF0000400042807D11448006820F4E050E16888
:10200000084311490860207800F00800082808D12A
:102010000D48006820F46040216940EAC1000A4987
:10202000086000F03DF808490968C1F30311074A48
:10203000515CC840064908600F20FFF72BFC0020C8
:102040004DE70000003C024008380240DA6000081A
:1020500000000020014800687047000000000020D8
:1020600000B5FFF7F7FF04490968C1F38221034A6D
:10207000515CC84000BD000008380240EA6000081A
:1020800000B5FFF7E7FF04490968C1F34231034A8D
:10209000515CC84000BD000008380240EA600008FA
:1020A0002DE9F047002400250026A14625480068B8
:1020B00000F00C0020B1042805D008283AD105E032
:1020C000DFF8849039E0DFF8849036E01D48001F87
:1020D000006800F03F041B48001F006800F4800007
:1020E00078B11A481749091F0968C1F38811A0FB84
:1020F00001700146224600233846FEF775F8054672
:102100000EE011480F49091F0968C1F38811A0FBAF
:1021100001700146224600233846FEF765F8054661
:102120000848001F0068C0F30140401C4600B5FB92
:10213000F6F902E0DFF8109000BF00BF4846BDE8A6
:10214000F0870000083802400024F40040787D0148
:10215000F8B504460CB90120F8BD207800F0010064
:10216000002874D0F948006800F00C0004280DD055
:10217000F648006800F00C00082813D1F348001F4F
:10218000006800F48000B0F5800F0BD1EF480838EC
:102190000068C0F34040002859D06068002856D13C
:1021A0000120D9E700BF6068B0F5803F08D1E7485B
:1021B0000838006840F48030E449083908601EE0BF
:1021C0006068B0F5A02F0DD1E0480838006840F4F1
:1021D0008020DE49083908600846006840F48030F5
:1021E00008600CE0D9480838006820F48030D749EE
:1021F000083908600846006820F48020086000BFA5
:10220000606890B1FFF71AF8054606E0FFF716F888
:10221000401B642801D903209EE7CC480838006899
:10222000C0F340400028F1D011E0FFF707F8054661
:1022300006E0FFF703F8401B642801D903208BE771
:10224000C24808380068C0F340400028F1D1207827
:1022500000F0020002285FD1BC48006800F00C00CA
:1022600058B1BA48006800F00C0008281CD1B748E3
:10227000001F006800F48000B0B9B4480838006856
:10228000C0F3400020B1E068012801D0012063E7DD
:10229000AE480838006820F0F800216940EAC10023
:1022A000AA490839086037E0E06800B30120A8496E
:1022B0000860FEF7C3FF054606E0FEF7BFFF401BC0
:1022C000022801D9032047E7A04808380068C0F376
:1022D00040000028F1D09D480838006820F0F80040
:1022E000216940EAC10099490839086014E00020DA
:1022F00097490860FEF7A2FF054606E0FEF79EFF3D
:10230000401B022801D9032026E7904808380068BE
:10231000C0F340000028F1D1207800F00800082820
:102320002CD16069A8B101208A490860FEF786FFB8
:10233000054606E0FEF782FF401B022801D9032074
:102340000AE782486C300068C0F340000028F1D0F2
:1023500014E000207F490860FEF770FF054606E0A4
:10236000FEF76CFF401B022801D90320F4E67748F2
:102370006C300068C0F340000028F1D1207800F0F4
:102380000400042870D1002670483830006800F03E
:10239000805090B900BF002000906C483830006831
:1023A00040F080506949383108600846006800F004
:1023B0008050009000BF00BF01266748006800F40D
:1023C0008070B0B96448006840F480706249086069
:1023D000FEF734FF054606E0FEF730FF401B0228FB
:1023E00001D90320B8E65C48006800F4807000283A
:1023F000F2D000BFA068012808D1544868300068B6
:1024000040F001005149683108601DE0A0680528CE
:102410000DD14E486830006840F004004B496831E7
:1024200008600846006840F0010008600CE047487A
:102430006830006820F001004449683108600846AF
:10244000006820F00400086000BFA068A8B1FEF793
:10245000F5FE054609E0FEF7F1FE401B41F288312A
:10246000884202D9032077E626E0384868300068C1
:10247000C0F340000028EED013E0FEF7DFFE054673
:1024800008E0FEF7DBFE401B41F28831884201D9AB
:10249000032061E62D4868300068C0F34000002842
:1024A000EFD1012E07D129483830006820F0805044
:1024B00026493831086000BFA069B8B323480068D6
:1024C00000F00C0008285ED0A069022846D1002048
:1024D0001F490866FEF7B2FE054606E0FEF7AEFEAF
:1024E000401B022801D9032036E618480838006846
:1024F000C0F340600028F1D1D4E907010843616AC4
:1025000040EA81110122A06AC2EB500041EA004179
:102510002C20005D41EA00600C49091F0860012081
:102520000B490866FEF78AFE054607E02DE0FEF738
:1025300085FE401B022801D903200DE60348083818
:102540000068C0F340600028F1D01EE00838024067
:1025500000004742800E47420070004000200C49B6
:102560000866FEF76BFE054606E0FEF767FE401BB9
:10257000022801D90320EFE506480068C0F3406057
:102580000028F2D101E00120E6E50020E4E50000AA
:10259000000047420038024070B504460D460CB9B1
:1025A000012070BD94F82C0028B9002084F82D007B
:1025B000204600F011F8022084F82C00211D20682C
:1025C000FDF7ADFF2946D4E90002FEF713F801201C
:1025D00084F82C000020E4E7704770B504460D46EF
:1025E00094F82C00022800D170BD022084F82C0041
:1025F00029462068FDF7CDFF012084F82C0000203B
:10260000F2E770B504460D46164694F82C000228F1
:1026100000D170BD022084F82C0032462946206883
:10262000FDF7BEFF2868022803D1052084F82C009E
:1026300002E0012084F82C000020EAE770B504468F
:102640002546681EB0F1807F01D301200FE0681E8F
:102650004FF0E02148610F214FF0FF3002F0F8FB0E
:1026600000204FF0E021886107200861002070BD44
:1026700010B504460CB9012010BDA06900B100E0FE
:1026800000BF94F8390028B9002084F838002046AB
:1026900000F028F8242084F839002068C06820F46D
:1026A00000502168C860204603F07EF82068006969
:1026B00020F49040216808612068406920F02A00D9
:1026C000216848612068C06840F400502168C860F3
:1026D0000020E063202084F8390084F83A000020CC
:1026E000CAE7000010B586B0044600BF0020009085
:1026F0002748006840F01000254908600846006837
:1027000000F01000009000BF00BF00BF002000904C
:102710001F481438006840F001001D491439086052
:102720000846006800F00100009000BF00BF00BF35
:10273000002000900846006840F00100086008464C
:10274000006800F00100009000BF00BF4815019034
:10275000022002900120039003200490072005909E
:1027600001A90C48FEF756FC4FF480600190072049
:10277000059001A90748FEF74DFC01220021252004
:10278000FFF7B7F92520FFF7A7F906B010BD000045
:1027900044380240000002402DE9F84304460D464B
:1027A00016461F464FF0000994F8390020285CD1E6
:1027B00005B116B90120BDE8F88300BF94F83800D0
:1027C000012801D10220F6E7012084F8380000BF7B
:1027D0000020E063212084F83900FEF72FFD8146B8
:1027E000A684E6842BE0E08C401EE084A068B0F56F
:1027F000805F16D14B46002280212046009703F0CF
:1028000087F908B10320D6E7A846B8F80000C0F35E
:10281000080021684860206908B9AD1C0FE06D1CF4
:102820000DE04B46002280212046009703F070F90E
:1028300008B10320BFE715F8010B21684860E08C60
:102840000028D0D14B46002240212046009703F0BB
:102850005FF908B10320AEE7202084F8390000BFFB
:10286000002084F8380000BFA5E70220A3E700BFDE
:10287000FEE7000000B587B000BF002001903E4891
:10288000006840F480003C4908600846006800F495
:102890008000019000BF00BF00BF002001903648BB
:1028A0001038006840F0800033491039086008464D
:1028B000006800F08000019000BF00BF00BF002052
:1028C00001900846006840F08000086008460068F3
:1028D00000F08000019000BF00BF00BF0020019009
:1028E0000846006840F0080008600846006800F0EC
:1028F0000800019000BF00BF00BF00200190084603
:10290000006840F4807008600846006800F4807039
:10291000019000BF00BF10200290122003900320FE
:102920000590002004900420069002A91348FEF7A9
:1029300071FB2020029002A91048FEF76BFB4FF4B8
:1029400080700290012003900320059002200490E3
:1029500002A90B48FEF75EFB4FF4005002900120E5
:102960000390032005900220049002A90548FEF779
:1029700051FB07B000BD000040380240001C02407F
:1029800000200240000C024000B587B000BF0020CC
:1029900001901048006840F008000E4908600846A1
:1029A000006800F00800019000BF00BF4FF4005025
:1029B000029000200390049002A90748FEF72AFB2A
:1029C000012211462820FFF794F82820FFF776F817
:1029D00007B000BD30380240000C024001460868D4
:1029E0004069C0F3802088B16FF480600A6850614C
:1029F0000420086400200863202081F83D0000BF07
:102A0000002081F83C0000BF012070470020FCE757
:102A10002DE9F84304460D4690461E46E76A2068B5
:102A2000006840F4806021680860042F04D0012F02
:102A300002D017F5803F06D12068006840F480700E
:102A40002168086008E0206B112805D12068006823
:102A500040F4807021680860434600224FF0011165
:102A60002046009600F0BAF910B10320BDE8F883C3
:102A70002069B0F5804F05D1E8B240F0010021682F
:102A8000086149E005F44070F02141EAE010216856
:102A90000861334642462949204600F0DDF930B14D
:102AA000206C042801D10120E0E70320DEE7E8B232
:102AB00021680861334642462049891F204600F0BC
:102AC000CBF930B1206C042801D10120CEE70320DE
:102AD000CCE700BF0020009020684069009020688B
:102AE0008069009000BF00BF2068006840F48070DB
:102AF00021680860434600224FF0011120460096ED
:102B000000F06CF908B10320B0E705F44070F12142
:102B100041EAE01021680861334642460749891FAF
:102B2000204600F099F930B1206C042801D1012031
:102B30009CE703209AE7002098E7000008000100C6
:102B40002DE9F84304460D4617469846E66A042EDA
:102B500004D0012E02D016F5803F06D1206800680F
:102B600040F480702168086008E0206B122805D1CD
:102B70002068006840F48070216808603B460022AD
:102B80004FF001112046CDF8008000F027F910B178
:102B90000320BDE8F8832069B0F5804F04D105F02B
:102BA000FE002168086117E005F44070F02141EA59
:102BB000E0102168086143463A461049204600F07B
:102BC0004BF930B1206C042801D10120E1E703204A
:102BD000DFE7E8B22168086143463A460749891FA2
:102BE000204600F039F930B1206C042801D10120D1
:102BF000CFE70320CDE70020CBE70000080001006D
:102C000010B50C480C49086001140B4801610B48D1
:102C1000094948600021084841618160C161016241
:102C2000C1608161FEF736FB00210348FEF70CFB13
:102C300010BD000000580040F8010020E09304009F
:102C4000F8B504460D4616464FF47A7033462A46C8
:102C5000214600900448FEF7B1FB07460FB900205B
:102C6000F8BD0120FCE70000F801002000B585B0A8
:102C70004FF40050009001200190032003900220A7
:102C8000029069461848FEF7C5F900224FF400513A
:102C90001548FEF7CDFA00224FF480711348FEF775
:102CA000C7FA1348FDF7AFFB0A20FEF79FF9012290
:102CB00011020E48FEF7BCFA0D48FDF7A4FB0A20EE
:102CC000FEF794F94FF4005000900020019003208B
:102CD00003900020029069460348FEF79BF95020BC
:102CE000FEF784F905B000BD000C02400020024050
:102CF000FFFF1F0010B5FFF7BDFDFFF781FFFFF7D6
:102D0000B5FFFFF741FE10BD2DE9F04105460F4626
:102D10000024002600BF00BF00BF2BE004EB4400EE
:102D200005EB8000807800F0010088B104EB4403DB
:102D300005EB83039A8804EB440305EB830399684E
:102D400004EB440315F82300FFF77AFF064610E072
:102D500004EB440305EB83031A7904EB440305EB0E
:102D60008303996804EB440315F8230000F02CF961
:102D70000646641C0EB9BC42D0D116B13046BDE83F
:102D8000F0812046FBE770B504460D4616461DE06F
:102D90002046FFF723FE08B1012070BD681CA8B1D2
:102DA00025B1FEF74BFA801BA8420FD9206C40F0EA
:102DB0002000206400202063202084F83D0000BF14
:102DC000002084F83C0000BF0320E6E7206840694B
:102DD000C0F380000028DBD00020DEE72DE9F041C1
:102DE00004460D4617461E46DDF8188017E0701C95
:102DF000A8B12EB1FEF722FAA0EB0800B0420ED91E
:102E000000202063202084F83D00002084F83E004C
:102E100000BF84F83C0000BF0320BDE8F081C5F38B
:102E2000074001280AD120684069A9B20840A9B228
:102E3000884201D101200BE0002009E02068806970
:102E4000A9B20840A9B2884201D1012000E00020C7
:102E5000B842CCD00020E0E72DE9F04104460D4611
:102E600016461F4631E020684069C0F38020C0B19B
:102E70002068006840F40070216808606FF480608A
:102E8000216848610420206400202063202084F809
:102E90003D0000BF002084F83C0000BF0120BDE8D9
:102EA000F081701C88B126B1FEF7C8F9C01BB04292
:102EB0000BD900202063202084F83D0000BF0020B3
:102EC00084F83C0000BF0320E9E7C5F30740012870
:102ED0000AD120684069A9B20840A9B2884201D14C
:102EE00001200BE0002009E020688069A9B20840B9
:102EF000A9B2884201D1012000E000200028B2D010
:102F00000020CCE770B504460D46164629E020683F
:102F10004069C0F3001080B16FF010002168486173
:102F2000002020642063202084F83D0000BF0020A2
:102F300084F83C0000BF012070BD25B1FEF77EF98A
:102F4000801BA8420DD9206C40F020002064202076
:102F500084F83D0000BF002084F83C0000BF03203F
:102F6000EAE720684069C0F380100028CFD0002035
:102F7000E2E770B504460D4616461DE02046FFF711
:102F80002DFD08B1012070BD681CA8B125B1FEF768
:102F900055F9801BA8420FD9206C40F02000206416
:102FA00000202063202084F83D0000BF002084F82A
:102FB0003C0000BF0320E6E720684069C0F3C01072
:102FC0000028DBD00020DEE7F8B504460D461646A3
:102FD0004FF47A7033462A46214600900448FEF7A3
:102FE00081FB07460FB90020F8BD0120FCE7000077
:102FF000F80100207CB5044601F0A4F8054601F074
:1030000091F806460020CDE900040848006800EB6E
:10301000800202EBC002064800EB82002B463246DB
:10302000416A0248006801F07FFD7CBD3800002045
:103030000001002070B504461F48006800EB400006
:103040001E4951F820501C48006800EB400001EB7D
:10305000800040681849096801EB4101174A42F8AD
:10306000210001F05FF886B21348006800EB4000D1
:10307000124A02EB80008068C3880F48006800EBAA
:10308000400002EB80008068C088604381B2324615
:10309000002000F0A5FC0848006800EB400007494C
:1030A00041F820500449096801EB4101034A52F8F4
:1030B000210001F0F7F970BD38000020B0010020B8
:1030C0002DE9F04106460F461446A4F120001449AC
:1030D000096801EB4101134B03EB81018968C98841
:1030E00048430F49096801EB410103EB81018968FD
:1030F0008988CD1DE91705EB5171C910084B1B6874
:1031000003EB4303DFF81CC00CEB83039B681B68D5
:1031100000FB013239463046FDF77EF9BDE8F0810B
:1031200038000020B001002010B50948006880690F
:1031300040F0010006490968886101221021054814
:10314000FEF776F8012280210248FEF771F810BDE3
:10315000C8000020000C02402DE9FF5F0446154620
:10316000984601264FF0000900274FF0000AAB46B1
:1031700000E07F1C1BF8011B0029FAD100F0D2FFF0
:103180003D49096801EB41013C4A02EB8101896834
:103190008988B0FBF1FAB8F1010F06D0B8F1020F3F
:1031A00015D0B8F1030F22D10FE0AAEB0700324986
:1031B000096801EB4101314A02EB81018968898884
:1031C000484304EB500086B213E0264611E0AAEB18
:1031D00007012948006800EB4000284A02EB800004
:1031E00080688088624201FB002086B201E02646AA
:1031F00000BF00BF012E02DBB6F5004F00DB012649
:1032000014E02A7830460199FFF75AFF1A480068FF
:1032100000EB4000194901EB800080688088304451
:1032200086B26D1C09F101001FFA80F900F07AFFE7
:103230001149096801EB4101104A02EB81018968DB
:10324000898809FB110080B20B49096801EB410133
:1032500002EB810189688988884201D3012000E05E
:103260000020297809B1012100E000210840002850
:10327000C7D1BDE8FF9F000038000020B00100204A
:1032800070B504460D4600F03FFFC088604386B22B
:1032900003232A4631460020FFF75EFF70BD000081
:1032A0002DE9F04306460F4690460320A0EB48095F
:1032B000002445467EE0424B1B6803EB4303DFF8E6
:1032C00004C15CF823207B1B99B2331998B200F03B
:1032D000BBF93B4B1B6803EB4303DFF8E8C05CF82A
:1032E00023207B1B99B2331B98B200F0ADF9344B0D
:1032F0001B6803EB4303DFF8CCC05CF823203B1BC7
:1033000099B2731998B200F09FF92D4B1B6803EB2B
:103310004303DFF8B0C05CF823203B1B99B2731B5A
:1033200098B200F091F9264B1B6803EB4303DFF8DA
:1033300094C05CF823207B1999B2331998B200F03D
:1033400083F91F4B1B6803EB4303DFF878C05CF87D
:1033500023207B1999B2331B98B200F075F9184BF2
:103360001B6803EB4303DFF85CC05CF823203B19C8
:1033700099B2731998B200F067F9114B1B6803EB0F
:103380004303DFF840C05CF823203B1999B2731B5C
:1033900098B200F059F9B9F1000F04DA062000EBF9
:1033A0008400814405E0601B0A2101EB8000814418
:1033B0006D1E641CAC427FF67EAFBDE8F08300005A
:1033C00038000020B00100202DE9FC4104460D46E4
:1033D000174600BF4A48006800EB800101EBC001BE
:1033E000484800EB8100006988B900F09BFE00FBB3
:1033F00005414348006800EB800202EBC0024148EF
:1034000000EB8200406A042202FB010664E03C48B3
:10341000006800EB800101EBC0013A4800EB81003D
:103420000069012811D100F07DFE00FB0541344800
:10343000006800EB800202EBC002324800EB820021
:10344000406A032202FB010646E02D48006800EBBB
:10345000800101EBC0012B4800EB810000690228CC
:1034600017D02748006800EB800101EBC001254818
:1034700000EB8100006904280BD02148006800EBB4
:10348000800101EBC0011F4800EB810000690728A3
:1034900011D100F047FE00FB05411948006800EB20
:1034A000800202EBC002174800EB8200406A022251
:1034B00002FB010610E000F035FE00FB054110485C
:1034C000006800EB800202EBC0020E4800EB8200B5
:1034D000406A022202FB01060948006800EB400036
:1034E000094951F82000002101233A46CDE9001096
:1034F00031460348006801F017FBBDE8FC8100007D
:103500003800002000010020B00100202DE9F04F1C
:1035100089B005460E4691469A460027B846BB46F6
:1035200000200890079006900590049000240390D6
:10353000029001900090A9EB0500002802DDA9EBA4
:10354000050001E0A5EB090007B2AAEB0600002880
:1035500002DDAAEB060001E0A6EB0A000FFA80F8F4
:103560000FFA85FB30B20890A94503DB01200790D4
:10357000069003E04FF0FF3007900690B24503DB62
:1035800001200590049003E04FF0FF300590049077
:1035900047450DDB0020079004903C46384607EB7A
:1035A000D071491009B20391CDF8088001970CE061
:1035B0000020069005904446404608EBD071491023
:1035C00009B203910297CDF80480002000902FE00B
:1035D0001B4B1B6803EB4303DFF868C05CF8232038
:1035E000089B99B21FFA8BF000F02EF8DDE902106B
:1035F000084400B203900398A0420CDB0398001B20
:1036000000B20390079858440FFA80FB0599089878
:10361000084400B20890069858440FFA80FB0499B9
:103620000898084400B208900098401C00B200902E
:10363000DDE900018842CBDD09B0BDE8F08F000074
:1036400038000020B001002030B503460C46534836
:10365000006800EB800101EBC001514800EB8100E4
:10366000006980B900F05EFD04FB003081004B482A
:10367000006800EB800505EBC005494800EB8500BC
:10368000406A425088E04548006800EB800101EB49
:10369000C001434800EB81000069012837D100F0E8
:1036A00041FD04FB00313D48006800EB800505EB5F
:1036B000C0053B4800EB8500406A032505FB01007F
:1036C000110C817000F02EFD04FB003133480068BE
:1036D00000EB800505EBC005314800EB8500406A32
:1036E000032505FB0100110A417000F01BFD04FBDE
:1036F000003000EB40012948006800EB800505EB35
:10370000C005274800EB8500406A425444E0234846
:10371000006800EB800101EBC001214800EB810053
:103720000069022817D01D48006800EB800101EBFA
:10373000C0011B4800EB8100006904280BD017482A
:10374000006800EB800101EBC001154800EB81002F
:103750000069072810D100F0E5FC04FB00304100AF
:103760000E48006800EB800505EBC0050C4800EB37
:103770008500406A42520FE000F0D4FC04FB0030A8
:1037800041000648006800EB800505EBC0050448D1
:1037900000EB8500406A425230BD00003800002036
:1037A000000100202DE9F04105460E4617461C4653
:1037B0003A4631462846FFF707FE301981B23A46AD
:1037C0002846FFF701FE22463146284600F008F859
:1037D000E91988B22246314600F002F8BDE8F081CE
:1037E0002DE9FC4104460D46174600BF4B480068D2
:1037F00000EB800101EBC001494800EB810000694A
:1038000088B900F08FFC00FB05414448006800EBDC
:10381000800202EBC002424800EB8200406A0422B0
:1038200002FB010664E03D48006800EB800101EB0B
:10383000C0013B4800EB81000069012811D100F074
:1038400071FC00FB05413548006800EB800202EB8B
:10385000C002334800EB8200406A032202FB0106EB
:1038600046E02E48006800EB800101EBC0012C48C7
:1038700000EB81000069022817D02848006800EB9F
:10388000800101EBC001264800EB8100006904289B
:103890000BD02248006800EB800101EBC0012048FA
:1038A00000EB81000069072811D100F03BFC00FB10
:1038B00005411A48006800EB800202EBC00218487C
:1038C00000EB8200406A022202FB010610E000F0D9
:1038D00029FC00FB05411148006800EB800202EB67
:1038E000C0020F4800EB8200406A022202FB010680
:1038F00000F018FCA0F101080848006800EB400047
:10390000084951F820003B4601223146CDE90080AC
:103910000248006801F008F9BDE8FC813800002089
:1039200000010020B00100202DE9F04706460F46B7
:1039300090460320A0EB4809002445462649096823
:1039400001EB4101254A52F8210000F0ABFD30E0C7
:103950007DB16B041A0C3B1999B2731B98B2FFF737
:1039600033FD6B041A0C3B1B99B2731B98B2FFF723
:103970002BFD7CB163041A0C7B1B99B2331B98B2EC
:10398000FFF722FD63041A0C7B1999B2331B98B21E
:10399000FFF71AFDB9F1000F04DA062000EB8400EE
:1039A000814405E0601B0A2101EB800081446D1E0B
:1039B000641CAC42CCD90849096801EB4101074AB3
:1039C00052F8210000F06EFD424639463046FFF7BE
:1039D00067FCBDE8F087000038000020B00100203F
:1039E0002DE9FC4704460D461746984600BF50494E
:1039F000096801EB41014F4A52F8210000F052FDE5
:103A00004B48006800EB800101EBC0014A4800EB25
:103A10008100006988B900F085FB00FB054144483E
:103A2000006800EB800202EBC002434800EB82001A
:103A3000406A042202FB010664E03D48006800EB96
:103A4000800101EBC0013C4800EB810000690128C6
:103A500011D100F067FB00FB05413548006800EB21
:103A6000800202EBC002344800EB8200406A03226D
:103A700002FB010646E02E48006800EB800101EBE6
:103A8000C0012D4800EB81000069022817D02848AA
:103A9000006800EB800101EBC001274800EB8100CA
:103AA000006904280BD02248006800EB800101EB7C
:103AB000C001214800EB81000069072811D100F006
:103AC00031FB00FB05411A48006800EB800202EB65
:103AD000C002194800EB8200406A022202FB010684
:103AE00010E000F01FFB00FB05411148006800EBEF
:103AF000800202EBC002104800EB8200406A022202
:103B000002FB010600F00EFBA0EB07090848006865
:103B100000EB4000074951F8200043463A46314641
:103B2000CDE900900248006800F0FEFFBDE8FC8788
:103B300038000020B00100200001002000B587B04F
:103B400000BF00200190FE48006840F08000FC4962
:103B500008600846006800F08000019000BF00BFC8
:103B600000BF002001900846006840F08000086017
:103B70000846006800F08000019000BF00BF00BF51
:103B8000002001900846006840F080000860084668
:103B9000006800F08000019000BF00BF00BF00205F
:103BA00001900846006840F002000860084600687E
:103BB00000F00200019000BF00BF00BF0020019094
:103BC0000846006840F0010008600846006800F000
:103BD0000100019000BF00BF00BF00200190084617
:103BE000006840F0010008600846006800F001002D
:103BF000019000BF00BF00BF002001900846006890
:103C000040F0020008600846006800F002000190E1
:103C100000BF00BF00BF002001900846006840F0D0
:103C2000400008600846006800F04000019000BFB6
:103C300000BF00BF002001900846006840F010005F
:103C400008600846006800F01000019000BF00BF47
:103C500000BF002001900846006840F01000086096
:103C60000846006800F01000019000BF00BF00BFD0
:103C7000002001900846006840F080000860084677
:103C8000006800F08000019000BF00BF00BF00206E
:103C900001900846006840F040000860084600684F
:103CA00000F04000019000BF00BF00BF0020019065
:103CB0000846006840F0400008600846006800F0D0
:103CC0004000019000BF00BF00BF002001900846E7
:103CD000006840F4807008600846006800F4807056
:103CE000019000BF00BF00BF00200190084600689F
:103CF00040F0040008600846006800F004000190ED
:103D000000BF00BF00BF002001900846006840F4DB
:103D1000807008600846006800F48070019000BF61
:103D200000BF00BF002001900846006840F010006E
:103D300008600846006800F01000019000BF00BF56
:103D400000BF002001900846006840F04000086075
:103D50000846006800F04000019000BF00BF00BFAF
:103D6000002001900846006840F0080008600846FE
:103D7000006800F00800019000BF00BF00BF0020F5
:103D800001900846006840F0080008600846006896
:103D900000F00800019000BF00BF00BF00200190AC
:103DA0000846006840F4807008600846006800F427
:103DB0008070019000BF00BF00BF00200190084646
:103DC000006840F0010008600846006800F001004B
:103DD000019000BF00BF00BF0020019008460068AE
:103DE00040F0020008600846006800F00200019000
:103DF00000BF00BF00BF002001900846006840F0EF
:103E0000020008600846006800F00200019000BF50
:103E100000BF00BF002001900846006840F040004D
:103E200008600846006800F04000019000BF00BF35
:103E300000BF002001900846006840F480700860D0
:103E40000846006800F48070019000BF00BF00BF0A
:103E5000002001900846006840F480700860084621
:103E6000006800F48070019000BF00BF00BF002018
:103E700001900846006840F020000860084600688D
:103E800000F02000019000BF00BF00BF00200190A3
:103E90000846006840F0080008600846006800F026
:103EA0000800019000BF00BF00BF0020019008463D
:103EB000006840F0080008600846006800F008004C
:103EC000019000BF00BF02200590039001200490E4
:103ED000042002900E20069002A91A48FDF79AF8D5
:103EE000082002900E20069002A91648FDF792F8CD
:103EF0004FF4807002900E20069002A91148FDF741
:103F000089F8012002900920069002A90E48FDF7C9
:103F100081F84FF4006002900E20069002A90B4831
:103F2000FDF778F84FF4805002900E20069002A919
:103F30000648FDF76FF8022002900920069007E07E
:103F400030380240001C02400004024000000240E1
:103F500002A96448FDF75EF8402002900E2006900A
:103F600002A96148FDF756F8202002900E20069025
:103F700002A95E48FDF74EF8402002900E20069000
:103F800002A95A48FDF746F84FF4005002900E205F
:103F9000069002A95648FDF73DF84FF48060029064
:103FA0000920069002A95048FDF734F84FF400406C
:103FB00002900E20069002A94D48FDF72BF8012033
:103FC00002900E20069002A94A48FDF723F88020AF
:103FD00002900E20069002A94748FDF71BF8042026
:103FE00002900E20069002A94248FDF713F8102017
:103FF00002900E20069002A93C48FDF70BF84FF402
:10400000805002900E20069002A93748FDF702F872
:10401000402002900E20069002A93848FCF7FAFFD3
:104020004FF4006002900E20069002A92E48FCF783
:10403000F1FF102002900E20069002A92D48FCF7F7
:10404000E9FF082002900E20069002A92C48FCF7F8
:10405000E1FF4FF4807002900E20069002A92148E3
:10406000FCF7D8FF4FF4007002900E20069002A9D2
:104070001C48FCF7CFFF802002900E20069002A97A
:104080001948FCF7C7FF4FF4806002900E2006909D
:1040900002A91848FCF7BEFF4FF4007002900E20F2
:1040A000069002A91348FCF7B5FF4FF48060029018
:1040B0000E20069002A91348FCF7ACFF10200290D6
:1040C0000220059001200390049002A90B48FCF700
:1040D000A1FF8020029002A90848FCF79BFF07B0CF
:1040E00000BD000000040240001802400010024021
:1040F000001C02400020024000080240000C024068
:1041000000000240001402400448006800EB400038
:10411000034901EB800080687047000038000020F0
:10412000B00100200548006800EB800101EBC001F0
:10413000034800EB8100806A7047000038000020CF
:10414000000100200548006800EB800101EBC00180
:10415000034800EB8100C06A70470000380000206F
:104160000001002000B58DB000BF002000908948FC
:10417000006840F08060874908600846006800F0E9
:104180008060009000BF00BF00BF00200090814809
:104190001438006840F400007E491439086008466D
:1041A000006800F40000009000BF00BFFFF7C6FCED
:1041B00001F0C8F97848794908607948007800EB3F
:1041C0004000784901EB80008078401E73494861C7
:1041D0007348007800EB4000724901EB8000C07822
:1041E000401E6E4988616E48007800EB40006D49C2
:1041F00001EB800080786A49097801EB4101694A46
:1042000012F821100844401E6449C86164480078CF
:1042100000EB4000114601EB8000C078604909784E
:1042200001EB410102EB810149780844401E5B49E2
:1042300008625B48007800EB4000114601EB80000B
:1042400080785749097801EB410112F821100844A0
:104250005349097801EB410102EB810109890844C6
:10426000401E4E4948624E48007800EB400011461F
:1042700001EB8000C0784A49097801EB410102EB6B
:104280008101497808444649097801EB410102EB74
:10429000810149890844401E4049886240480078AD
:1042A00000EB4000114601EB800080783C49097822
:1042B00001EB410112F8211008443949097801EB5A
:1042C000410102EB8101098908443549097801EB74
:1042D000410102EB810109790844401E2F49C8625F
:1042E0002F48007800EB4000114601EB8000C078B9
:1042F0002B49097801EB410102EB8101497808441F
:104300002749097801EB410102EB81014989084401
:104310002349097801EB410102EB81014979084405
:10432000401E1E49086308200190C0200590052109
:1043300007914FF480300A9001A8FDF75FFC184800
:10434000007800EB4000174901EB80000189134819
:1043500001661348007800EB4000124901EB800031
:1043600041890E484166002180F8361080F83510EA
:1043700080F8341000200949486000210748816016
:10438000C1600161FDF7DCFA074800F07DF80DB06F
:1043900000BD00004438024000680140C800002011
:1043A0003C000020CE9D00081000002070B58EB0AB
:1043B00004460D46164600200190FFF7B3FE02901A
:1043C00000200390FFF7BEFE049005960A95FF209B
:1043D0000690002007908DF8340000218DF83510EC
:1043E0008DF836104FF4C060089007200990FFF751
:1043F00099FE0B90FFF7A6FE0C90224601A91048EB
:10440000FDF76EFA4FF0FF3004EB44010D4A02EB6A
:10441000810148600C4804EB440102EB8101886093
:104420004FF07F4004EB440142F82100044800684B
:10443000406A40F001000249096848620EB070BD50
:10444000C8000020B00100201000002001490860D1
:1044500070470000380000200449096801EB410161
:10446000034A02EB810148607047000038000020D9
:10447000B001002010B504460B46204600F012F8AB
:104480001846FFF7E9FF10BD0449096801EB410137
:10449000034A02EB81018860704700003800002069
:1044A000B00100200349096801EB4101024A42F8CA
:1044B0002100704738000020B001002070B504468C
:1044C0000D46224629460248FDF7C9FA70BD000094
:1044D000C800002000B599B00020FFF7B7FF4FF0EB
:1044E0007F40FEF787FD4FF07F410816FFF7C2FFC0
:1044F000D748FFF7C9FFD7A10120FEF7C1FEDBA116
:104500000220FEF7BDFEE0A10320FEF7B9FEE7A101
:104510000420FEF7B5FEEDA10520FEF7B1FEF7A1E0
:104520000620FEF7ADFEFE480078401CFC490870EE
:1045300008460278FBA1684601F032FB0720FEF72F
:1045400079FD4FF07F410816FFF794FF6946072079
:10455000FEF796FEFC48FFF7A5FF0820FEF76AFD70
:10456000FAA10820FEF78CFE4FF07F410812FFF7FA
:1045700081FFFA2340F2EE2219463220FEF7C6FFF1
:104580004FF4967340F2EE2219463220FEF7BEFF3A
:104590004FF07F414FF0FF20FFF76CFF4FF4C873DF
:1045A0001A46FA214FF49670FEF7B0FF4FF4C87325
:1045B0004FF41672FA211046FEF7A8FF6FF07F4005
:1045C000FBF718FF4FF07F410846FFF753FFE24823
:1045D000007800EB4000E14901EB80004089C838D9
:1045E00083B2DD48007800EB400001EB80000289D7
:1045F000C8210020FFF7F4F9D348FFF753FF082044
:10460000FEF718FDD6A10820FEF73AFE4FF07F41D5
:104610000812FFF72FFF6423C822FA211046FFF784
:10462000C1F84FF07F414FF0FF20FFF723FF322307
:10463000C822FA214FF4AF70FFF7B4F84FF07F4172
:10464000C148FFF717FFC82332224FF4AF71184655
:10465000FFF7A8F86FF07F40FBF7CCFE4FF07F41EB
:104660000846FFF707FFBC48007800EB4000BB4955
:1046700001EB80004089C83883B2B748007800EB6E
:10468000400001EB80000289C8210020FFF7A8F953
:10469000AD48FFF707FF0820FEF7CCFCB3A10820C8
:1046A000FEF7EEFD4FF07F410812FFF7E3FE6423B3
:1046B000C822FA211046FFF793F94FF07F414FF0DF
:1046C000FF20FFF7D7FE3223C822FA214FF4AF7044
:1046D000FFF786F94FF07F419B48FFF7CBFEC823D9
:1046E00032224FF4AF711846FFF77AF96FF07F402E
:1046F000FBF780FE4FF07F410846FFF7BBFE964870
:10470000007800EB4000954901EB80004089C838F3
:1047100083B29148007800EB400001EB80000289F1
:10472000C8210020FFF75CF98748FFF7BBFE08208F
:10473000FEF780FC91A10820FEF7A2FD93490846F0
:10474000FFF798FE32224FF4AF71C820FEF7A8FDA4
:104750004FF0FF210846FFF78DFE4B224FF4AF715B
:104760000846FEF79DFD6FF07F40FBF743FE4FF0DC
:104770007F410846FFF77EFE7748007800EB400057
:10478000764901EB80004089C83883B272480078CE
:1047900000EB400001EB80000289C8210020FFF7F8
:1047A0001FF96948FFF77EFE0820FEF743FC78A159
:1047B0000820FEF765FD4FF07F410812FFF75AFE13
:1047C00032224FF4AF714FF49670FFF7ADF84FF00F
:1047D0007F414FF0FF20FFF74DFE4B224FF4AF71AA
:1047E0004FF4E170FFF7A0F86FF07F40FBF702FE97
:1047F0004FF07F410846FFF73DFE5748007800EB39
:104800004000564901EB80004089C83883B25248C5
:10481000007800EB400001EB80000289C8210020F5
:10482000FFF7DEF80820FEF705FC4748FFF73AFEE1
:104830000820FEF7FFFB5BA10820FEF721FD802189
:104840000120FFF73BFE0120FFF700FEB6E000006D
:1048500010000020424820352E3020696E63682009
:104860004C434420706172613A000000496D6167F9
:1048700065207265736F6C7574696F6E3A3830308D
:104880007834383020707800546F75636820706118
:10489000643A3520706F696E7420746F7563682098
:1048A000737570706F7274656400000055736520D5
:1048B00053544D33322D4C54444320646972656324
:1048C000746564206472697665722C006E6F206E68
:1048D0006565642065787465726E206472697665BA
:1048E000722C5247423838382C3234626974732043
:1048F000646174612062757300000000546F756319
:104900006820706164207573652049494320746F85
:1049100020636F6D6D756E696361746500000000E2
:104920000D000020446973706C61792076616C75AC
:10493000652064656D6F3A2074657374436F756E9E
:1049400074203D2025642000FF0000FF4472617741
:10495000206C696E653A00003C000020CE9D000886
:104960004472617720526563743A00004472617743
:104970002046756C6C20526563743A00447261770E
:1049800020636972636C653A000000000000FFFF5D
:10499000447261772066756C6C20636972636C6524
:1049A0003A0000005472616E73706172656E6379D3
:1049B000206566666563743A000000004FF07F4032
:1049C000FEF718FB4FF07F410812FFF753FD4B2213
:1049D0004FF4AF714FF4C870FEF7A6FF6FF07F4041
:1049E000FBF708FD0020FFF731FD4FF07F40FEF799
:1049F00001FB00210120FFF761FD4FF07F414FF0E7
:104A0000FF20FFF737FD4B224FF4AF714FF4E170F9
:104A1000FEF78AFF4FF07F411448FFF72BFD4B2232
:104A20004FF4AF710846FEF77FFF6FF07F40FBF752
:104A3000E1FC4FF07F410846FFF71CFD0C48007871
:104A400000EB40000B4901EB80004089C83883B27D
:104A50000748007800EB400001EB80000289C82184
:104A60000020FEF7BDFF19B000BD0000FF0000FFF1
:104A70003C000020CE9D000800B587B000BF00209C
:104A800001902748006840F08000254908600846EA
:104A9000006800F08000019000BF00BF00BF002050
:104AA00001900846006840F08000086008460068F1
:104AB00000F08000019000BF00BF00BF0020019007
:104AC0000846006840F0800008600846006800F072
:104AD0008000019000BF00BF0815029001200390E4
:104AE00004900320059002A90E48FCF793FA4FF4B6
:104AF0000060029002A90B48FCF78CFA4FF480503A
:104B0000029002A90748FCF785FA4FF48060054936
:104B100018310860400008604000086007B000BD20
:104B200030380240001C02402DE9F84304460D468F
:104B300016461F46DDE908984FF440303649486074
:104B40003648006800EB800101EBC001344800EBFF
:104B500081000069022803D102212F4881603DE0D5
:104B60002E48006800EB800101EBC0012C4800EBEF
:104B70008100006918B90021274881602EE027488C
:104B8000006800EB800101EBC001254800EB8100CB
:104B90000069012803D101211F4881601EE01F48E0
:104BA000006800EB800101EBC0011D4800EB8100B3
:104BB0000069032803D10321174881600EE01748DC
:104BC000006800EB800101EBC001154800EB81009B
:104BD0000069042802D104210F4881600E48C0F802
:104BE0000C9010480C4908600846FCF7F3F880B9AF
:104BF00021460948FCF782F858B933462A4641460F
:104C000005480097FCF7CBF918B964210248FCF776
:104C100012F9BDE8F8830000700100203800002080
:104C20000001002000B00240F0B500230024002560
:104C30008E880768FF68C7F30B473E443304066855
:104C40008436802707FB0266766806F4704706689C
:104C500084364FF0800C0CFB026677600E680768A4
:104C6000FF68C7F30B473E44761C1E430768843732
:104C70000CFB02777E608E890768FF68C7F30A071E
:104C80003E44330406688436802707FB0266B66814
:104C900006F47047066884360CFB0266B7608E68BF
:104CA0000768FF68C7F30A073E44761C1E4307687F
:104CB00084370CFB0277BE6006688436802707FBCA
:104CC0000266366926F00707066884360CFB026622
:104CD00037610F69066884360CFB0266376131263E
:104CE000765C33023226765C34040E7E3506066826
:104CF0008436802707FB0266B6690027066884367B
:104D00000CFB0266B76191F830601E4326432E43C8
:104D1000076884370CFB0277BE61066884368027FB
:104D200007FB0266766926F0FF07066884360CFBEF
:104D3000026677614F69066884360CFB026677610C
:104D400006688436802707FB0266F76940F207761B
:104D5000B743066884360CFB0266F761D1E9076742
:104D60003E43076884370CFB0277FE610668843691
:104D7000802707FB0266B66A0027066884360CFBAC
:104D80000266B7624F6A066884360CFB0266B76239
:104D90000E690EB9042313E00E69012E01D103231D
:104DA0000EE00E69042E08D00E69022E05D00E69A1
:104DB000032E02D00E69072E01D1022300E0012349
:104DC00006688436802707FB0266F66A06F0E0274D
:104DD000066884364FF0800C0CFB0266F762D1E95E
:104DE0000076F61B5E43F71C0E8D5E4347EA0647CE
:104DF000066884360CFB0266F762066884368027F4
:104E000007FB0266366BF70AFF02066884360CFB66
:104E100002663763CF6A066884360CFB0266376326
:104E200006688436D701F65946F0010706688436CD
:104E30004FEAC21C46F80C70F0BD00BFFEE7704799
:104E400002480068C0F30220704700000CED00E04B
:104E500010B5002807DA0A07140E054A00F00F0300
:104E60001B1FD45403E00A07130E024A135410BD4B
:104E700018ED00E000E400E07047000000B587B0E6
:104E800000BF00200190FE48006840F02000FC496F
:104E900008600846006800F02000019000BF00BFD5
:104EA00000BF002001900846006840F02000086024
:104EB0000846006800F02000019000BF00BF00BF5E
:104EC000002001900846006840F020000860084675
:104ED000006800F02000019000BF00BF00BF00206C
:104EE00001900846006840F020000860084600680D
:104EF00000F02000019000BF00BF00BF0020019023
:104F00000846006840F0200008600846006800F08D
:104F10002000019000BF00BF00BF002001900846A4
:104F2000006840F0200008600846006800F020009B
:104F3000019000BF00BF00BF00200190084600683C
:104F400040F0200008600846006800F02000019052
:104F500000BF00BF00BF002001900846006840F07D
:104F6000200008600846006800F02000019000BFA3
:104F700000BF00BF002001900846006840F02000FC
:104F800008600846006800F02000019000BF00BFE4
:104F900000BF002001900846006840F02000086033
:104FA0000846006800F02000019000BF00BF00BF6D
:104FB000002001900846006840F040000860084664
:104FC000006800F04000019000BF00BF00BF00205B
:104FD00001900846006840F04000086008460068FC
:104FE00000F04000019000BF00BF00BF0020019012
:104FF0000846006840F0400008600846006800F07D
:105000004000019000BF00BF00BF00200190084693
:10501000006840F0080008600846006800F00800DA
:10502000019000BF00BF00BF00200190084600684B
:1050300040F0080008600846006800F00800019091
:1050400000BF00BF00BF002001900846006840F08C
:10505000080008600846006800F00800019000BFE2
:1050600000BF00BF002001900846006840F0080023
:1050700008600846006800F00800019000BF00BF0B
:1050800000BF002001900846006840F01000086052
:105090000846006800F01000019000BF00BF00BF8C
:1050A000002001900846006840F0100008600846A3
:1050B000006800F01000019000BF00BF00BF00209A
:1050C00001900846006840F010000860084600683B
:1050D00000F01000019000BF00BF00BF0020019051
:1050E0000846006840F0100008600846006800F0BC
:1050F0001000019000BF00BF00BF002001900846D3
:10510000006840F0100008600846006800F01000D9
:10511000019000BF00BF00BF00200190084600685A
:1051200040F0100008600846006800F01000019090
:1051300000BF00BF00BF002001900846006840F09B
:10514000100008600846006800F01000019000BFE1
:1051500000BF00BF002001900846006840F010002A
:1051600008600846006800F01000019000BF00BF12
:1051700000BF002001900846006840F01000086061
:105180000846006800F01000019000BF00BF00BF9B
:10519000002001900846006840F0080008600846BA
:1051A000006800F00800019000BF00BF00BF0020B1
:1051B00001900846006840F0080008600846006852
:1051C00000F00800019000BF00BF00BF0020019068
:1051D0000846006840F0080008600846006800F0D3
:1051E0000800019000BF00BF00BF002001900846EA
:1051F000006840F0800008600846006800F0800009
:10520000019000BF00BF00BF002001900846006869
:1052100040F0400008600846006800F0400001903F
:1052200000BF00BF00BF002001900846006840F0AA
:10523000400008600846006800F04000019000BF90
:1052400000BF00BF002001900846006840F0040045
:1052500008600846006800F00400019000BF00BF2D
:1052600000BF002001900846006840F02000086060
:105270000846006800F02000019000BF00BF01E078
:105280003038024000BF002001900846006840F01E
:10529000400008600846006800F04000019000BF30
:1052A00000BF00BF002001900846006840F04000A9
:1052B00008600846006800F04000019000BF00BF91
:1052C00000BF002001900846006840F080000860A0
:1052D0000846006800F08000019000BF00BF00BFDA
:1052E000002001900846006840F010000860084661
:1052F000006800F01000019000BF00BF00BF002058
:1053000001900846006840F01000086008460068F8
:1053100000F01000019000BF00BF022003900120A8
:105320000490022005900C2006900120029002A912
:105330007E48FBF76FFE0220029002A97B48FBF734
:1053400069FE0420029002A97848FBF763FE08205A
:10535000029002A97548FBF75DFE1020029002A999
:105360007248FBF757FE2020029002A96F48FBF716
:1053700051FE4FF48050029002A96C48FBF74AFEA0
:105380004FF40050029002A96848FBF743FE4FF427
:105390008040029002A96548FBF73CFE4FF40040B4
:1053A000029002A96148FBF735FE0120029002A994
:1053B0005F48FBF72FFE0220029002A95C48FBF732
:1053C00029FE0420029002A95948FBF723FE4FF45E
:1053D0008040029002A95748FBF71CFE4FF40040A2
:1053E000029002A95348FBF715FE0120029002A982
:1053F0005048FBF70FFE0220029002A94D48FBF730
:1054000009FE8020029002A94B48FBF703FE4FF4EF
:105410008070029002A94848FBF7FCFD4FF4007031
:10542000029002A94448FBF7F5FD4FF4806002901A
:1054300002A94148FBF7EEFD4FF40060029002A97B
:105440003D48FBF7E7FD4FF48050029002A93A482F
:10545000FBF7E0FD4FF40050029002A93648FBF73D
:10546000D9FD4FF48040029002A93348FBF7D2FDEA
:105470004FF40040029002A92F48FBF7CBFD4FF4F8
:105480008070029002A92B48FBF7C4FD4FF4007016
:10549000029002A92748FBF7BDFD4FF480600290FF
:1054A00002A92448FBF7B6FD4020029002A9234838
:1054B000FBF7B0FD1020029002A91D48FBF7AAFDE2
:1054C0002020029002A91A48FBF7A4FD01200290B7
:1054D00002A91B48FBF79EFD4FF40060029002A951
:1054E0001248FBF797FD4FF40040029002A91048C4
:1054F000FBF790FD4FF48070029002A90C48FBF777
:1055000089FD8020029002A90C48FBF783FD022050
:10551000029002A90848FBF77DFD0120029002A934
:105520000548FBF777FD07B000BD000000140240FE
:1055300000180240000C024000100240001C024013
:105540000008024000B589B0FFF798FC00BF0020BA
:1055500001901E48006840F001001C4908600846A0
:10556000006800F00100019000BF00BF1848194911
:105570000860012048600121164881600821C1604F
:1055800010210161402141614FF4C071816100210E
:10559000C1614FF400610162002141624FF400518A
:1055A00081620220029007200390042004900720CB
:1055B0000590022006900790089002A90548FCF784
:1055C000EBFF00F009F809B000BD000038380240D8
:1055D000400100A09400002010B5002401202149C2
:1055E000086008204860012088600020C8604FF6ED
:1055F000FF721D48FDF705F8012000F037F8022082
:105600001849086008204860012088600020C860B0
:105610004FF6FF721448FCF7F4FF032011490860AD
:1056200008204860042088600020C8604FF6FF72A0
:105630000D48FCF7E6FF40F23124042009490860D8
:1056400008204860012088600846C4604FF6FF7259
:105650000548FCF7D6FF40F2AB210348FCF7BDFF3D
:1056600010BD0000840000209400002001B581B02E
:1056700000200090054901984843009002E00098FE
:10568000401E009000980028F9D10CBDA0860100B2
:10569000704710B5FCF7F2F810BD000000B593B0EC
:1056A00000BF002001902548006840F08050234949
:1056B00008600846006800F08050019000BF00BFFD
:1056C00000BF002001901E48006840F440401C4983
:1056D00008600846006800F44040019000BF00BF29
:1056E00001200290000403900220089041050991D6
:1056F00019210A914FF4B4710B9102210C910721E9
:105700000D9102A8FCF724FD08B100BFFEE7FCF7ED
:105710002FFA0F200E9002200F90002010904FF4CF
:10572000A05011904FF48050129005210EA8FCF764
:10573000D1FB08B100BFFEE713B000BD4038024006
:10574000007000401448006840F47000124908607E
:105750001248006840F001001049086000200F491D
:10576000083108600D4800680D4908400B49086081
:105770000C48091D0860081F006820F48020091FDC
:105780000860002005490C3108604FF000600249B4
:10579000803908607047000088ED00E00038024062
:1057A000FFFFF6FE103000242DE9F04104460025ED
:1057B0002068056925F44055E068054320680561C7
:1057C0002068C56849F20C6085432169A0680843D8
:1057D00061690843E169084305432068C5602068A2
:1057E000456925F44075A069054320684561E06975
:1057F000B0F5004F7ED1C4492068884203D0C34928
:10580000206888425DD1FCF73BFC00EBC00101EB56
:10581000001061684900B0FBF1F06421B0FBF1F0C9
:105820000601FCF72DFC00EBC00101EB00106168E4
:105830004900B0FBF1F7FCF723FC00EBC00101EBE2
:10584000001061684900B0FBF1F06421B0FBF1F099
:1058500000EBC00101EB0010A7EB8000322101EB4F
:10586000C0006421B0FBF1F000F0F80006EB400648
:10587000FCF706FC00EBC00101EB00106168490079
:10588000B0FBF1F7FCF7FCFB00EBC00101EB0010F3
:1058900061684900B0FBF1F06421B0FBF1F000EB6E
:1058A000C00101EB0010A7EB8000322101EBC0002A
:1058B0006421B0FBF1F000F00700304421688860FB
:1058C00020E1FCF7CDFB00EBC00101EB00106168AB
:1058D0004900B0FBF1F06421B0FBF1F00601FCF7E8
:1058E000BFFB00EBC00101EB001061684900B0FB99
:1058F000F1F700E045E0FCF7B3FB00EBC00101EB82
:10590000001061684900B0FBF1F06421B0FBF1F0D8
:1059100000EBC00101EB0010A7EB8000322101EB8E
:10592000C0006421B0FBF1F000F0F80006EB400687
:10593000FCF796FB00EBC00101EB00106168490029
:10594000B0FBF1F7FCF78CFB00EBC00101EB0010A2
:1059500061684900B0FBF1F06421B0FBF1F000EBAD
:10596000C00101EB0010A7EB8000322101EBC00069
:105970006421B0FBF1F000F007003044216888603A
:10598000C0E061492068884203D0604920688842AD
:105990005CD1FCF775FB00EBC00101EB0010616806
:1059A0008900B0FBF1F6FCF76BFB00EBC00101EBEB
:1059B000001061688900B0FBF1F06421B0FBF1F0E8
:1059C00000EBC00101EB0010A6EB8000322101EBDF
:1059D00000106421B0FBF1F000F0F006FCF750FB82
:1059E00000EBC00101EB001061688900B0FBF1F031
:1059F0006421B0FBF1F006EB0016FCF741FB00EB75
:105A0000C00101EB001061688900B0FBF1F7FCF701
:105A100037FB00EBC00101EB001061688900B0FBAF
:105A2000F1F06421B0FBF1F000EBC00101EB0010DC
:105A3000A7EB8000322101EB00106421B0FBF1F0F4
:105A400000F00F003044216888605BE0FCF708FB41
:105A500000EBC00101EB001061688900B0FBF1F6BA
:105A6000FCF7FEFA00EBC00101EB00106168890051
:105A7000B0FBF1F06421B0FBF1F000EBC00101EBF1
:105A80000010A6EB8000322101EB00106421B0FB76
:105A9000F1F000F0F006FCF7E3FA00EBC00101EBD7
:105AA000001061688900B0FBF1F06421B0FBF1F0F7
:105AB00006EB0016FCF7D4FA00EBC00101EB001076
:105AC00061688900B0FBF1F7FCF7CAFA00EBC0018E
:105AD00001EB001061688900B0FBF1F06421B0FBBC
